{
  "_format": "hh-sol-artifact-1",
  "contractName": "CollateralProtectionInsurance",
  "sourceName": "contracts/CollateralProtectionInsurance.sol",
  "abi": [
    {
      "inputs": [],
      "stateMutability": "nonpayable",
      "type": "constructor"
    },
    {
      "anonymous": false,
      "inputs": [
        {
          "indexed": true,
          "internalType": "address",
          "name": "borrower",
          "type": "address"
        },
        {
          "indexed": false,
          "internalType": "uint256",
          "name": "collateralAmount",
          "type": "uint256"
        }
      ],
      "name": "CollateralReturned",
      "type": "event"
    },
    {
      "anonymous": false,
      "inputs": [
        {
          "indexed": true,
          "internalType": "address",
          "name": "borrower",
          "type": "address"
        },
        {
          "indexed": false,
          "internalType": "uint256",
          "name": "loanAmount",
          "type": "uint256"
        },
        {
          "indexed": false,
          "internalType": "uint256",
          "name": "collateralAmount",
          "type": "uint256"
        }
      ],
      "name": "LoanCreated",
      "type": "event"
    },
    {
      "inputs": [],
      "name": "collateralThreshold",
      "outputs": [
        {
          "internalType": "uint256",
          "name": "",
          "type": "uint256"
        }
      ],
      "stateMutability": "view",
      "type": "function"
    },
    {
      "inputs": [],
      "name": "collectLoan",
      "outputs": [],
      "stateMutability": "payable",
      "type": "function"
    },
    {
      "inputs": [
        {
          "internalType": "uint256",
          "name": "loanAmount",
          "type": "uint256"
        },
        {
          "internalType": "uint256",
          "name": "collateralAmount",
          "type": "uint256"
        }
      ],
      "name": "createLoan",
      "outputs": [],
      "stateMutability": "nonpayable",
      "type": "function"
    },
    {
      "inputs": [
        {
          "internalType": "address",
          "name": "",
          "type": "address"
        }
      ],
      "name": "loan",
      "outputs": [
        {
          "internalType": "uint256",
          "name": "loanAmount",
          "type": "uint256"
        },
        {
          "internalType": "uint256",
          "name": "collateralThreshold",
          "type": "uint256"
        },
        {
          "internalType": "uint256",
          "name": "loanTime",
          "type": "uint256"
        },
        {
          "internalType": "uint256",
          "name": "loanToRepay",
          "type": "uint256"
        },
        {
          "internalType": "uint256",
          "name": "wallet",
          "type": "uint256"
        },
        {
          "internalType": "bool",
          "name": "paid",
          "type": "bool"
        }
      ],
      "stateMutability": "view",
      "type": "function"
    },
    {
      "inputs": [
        {
          "internalType": "address",
          "name": "",
          "type": "address"
        }
      ],
      "name": "loanCollateral",
      "outputs": [
        {
          "internalType": "uint256",
          "name": "",
          "type": "uint256"
        }
      ],
      "stateMutability": "view",
      "type": "function"
    },
    {
      "inputs": [],
      "name": "owner",
      "outputs": [
        {
          "internalType": "address",
          "name": "",
          "type": "address"
        }
      ],
      "stateMutability": "view",
      "type": "function"
    },
    {
      "inputs": [],
      "name": "payLoan",
      "outputs": [],
      "stateMutability": "payable",
      "type": "function"
    },
    {
      "stateMutability": "payable",
      "type": "receive"
    }
  ],
  "bytecode": "0x608060405234801561001057600080fd5b50326000806101000a81548173ffffffffffffffffffffffffffffffffffffffff021916908373ffffffffffffffffffffffffffffffffffffffff1602179055506117ff806100606000396000f3fe6080604052600436106100745760003560e01c806398cd90b51161004e57806398cd90b5146100e0578063b0857bb414610109578063b5e2ebc614610113578063e6a641e9146101555761007b565b8063472eb03d146100805780638da5cb5b1461008a5780638e8cfbde146100b55761007b565b3661007b57005b600080fd5b610088610192565b005b34801561009657600080fd5b5061009f610505565b6040516100ac9190610f65565b60405180910390f35b3480156100c157600080fd5b506100ca610529565b6040516100d79190610f99565b60405180910390f35b3480156100ec57600080fd5b5061010760048036038101906101029190610fe5565b61052f565b005b6101116109b0565b005b34801561011f57600080fd5b5061013a60048036038101906101359190611051565b610ec3565b60405161014c96959493929190611099565b60405180910390f35b34801561016157600080fd5b5061017c60048036038101906101779190611051565b610f0c565b6040516101899190610f99565b60405180910390f35b6000600360008060009054906101000a900473ffffffffffffffffffffffffffffffffffffffff1673ffffffffffffffffffffffffffffffffffffffff1673ffffffffffffffffffffffffffffffffffffffff1681526020019081526020016000206003015411610238576040517f08c379a000000000000000000000000000000000000000000000000000000000815260040161022f90611157565b60405180910390fd5b600360008060009054906101000a900473ffffffffffffffffffffffffffffffffffffffff1673ffffffffffffffffffffffffffffffffffffffff1673ffffffffffffffffffffffffffffffffffffffff168152602001908152602001600020600301543410156102de576040517f08c379a00000000000000000000000000000000000000000000000000000000081526004016102d5906111c3565b60405180910390fd5b600360008060009054906101000a900473ffffffffffffffffffffffffffffffffffffffff1673ffffffffffffffffffffffffffffffffffffffff1673ffffffffffffffffffffffffffffffffffffffff16815260200190815260200160002060050160009054906101000a900460ff161561038f576040517f08c379a00000000000000000000000000000000000000000000000000000000081526004016103869061122f565b60405180910390fd5b3073ffffffffffffffffffffffffffffffffffffffff166108fc349081150290604051600060405180830381858888f193505050501580156103d5573d6000803e3d6000fd5b5034600360008060009054906101000a900473ffffffffffffffffffffffffffffffffffffffff1673ffffffffffffffffffffffffffffffffffffffff1673ffffffffffffffffffffffffffffffffffffffff1681526020019081526020016000206003016000828254610449919061127e565b925050819055506000600260003373ffffffffffffffffffffffffffffffffffffffff1673ffffffffffffffffffffffffffffffffffffffff1681526020019081526020016000208190555060008054906101000a900473ffffffffffffffffffffffffffffffffffffffff1673ffffffffffffffffffffffffffffffffffffffff167f3db642b80902afb8ef23a2aeab4800b4b3717feb180705cf0a1c273ccc591c97346040516104fb9190610f99565b60405180910390a2565b60008054906101000a900473ffffffffffffffffffffffffffffffffffffffff1681565b60015481565b60008054906101000a900473ffffffffffffffffffffffffffffffffffffffff1673ffffffffffffffffffffffffffffffffffffffff163373ffffffffffffffffffffffffffffffffffffffff16146105bd576040517f08c379a00000000000000000000000000000000000000000000000000000000081526004016105b490611324565b60405180910390fd5b60008211610600576040517f08c379a00000000000000000000000000000000000000000000000000000000081526004016105f7906113b6565b60405180910390fd5b60008111610643576040517f08c379a000000000000000000000000000000000000000000000000000000000815260040161063a90611448565b60405180910390fd5b6000600360003373ffffffffffffffffffffffffffffffffffffffff1673ffffffffffffffffffffffffffffffffffffffff16815260200190815260200160002060000154146106c8576040517f08c379a00000000000000000000000000000000000000000000000000000000081526004016106bf906114b4565b60405180910390fd5b6706f05b59d3b200008211156107f2576040518060c00160405280838152602001828152602001601e426106fc91906114d4565b815260200160646014856107109190611508565b61071a9190611579565b8461072591906114d4565b81526020016000815260200160001515815250600360008060009054906101000a900473ffffffffffffffffffffffffffffffffffffffff1673ffffffffffffffffffffffffffffffffffffffff1673ffffffffffffffffffffffffffffffffffffffff168152602001908152602001600020600082015181600001556020820151816001015560408201518160020155606082015181600301556080820151816004015560a08201518160050160006101000a81548160ff021916908315150217905550905050610918565b6706f05b59d3b200008211610917576040518060c0016040528083815260200182815260200160144261082591906114d4565b81526020016064600a856108399190611508565b6108439190611579565b8461084e91906114d4565b81526020016000815260200160001515815250600360008060009054906101000a900473ffffffffffffffffffffffffffffffffffffffff1673ffffffffffffffffffffffffffffffffffffffff1673ffffffffffffffffffffffffffffffffffffffff168152602001908152602001600020600082015181600001556020820151816001015560408201518160020155606082015181600301556080820151816004015560a08201518160050160006101000a81548160ff0219169083151502179055509050505b5b80600260003373ffffffffffffffffffffffffffffffffffffffff1673ffffffffffffffffffffffffffffffffffffffff168152602001908152602001600020819055503373ffffffffffffffffffffffffffffffffffffffff167f58d170de3a12438e22d81380f353b2fcac86f0a708a1374deaa5c6322a95992f83836040516109a49291906115aa565b60405180910390a25050565b6000600260008060009054906101000a900473ffffffffffffffffffffffffffffffffffffffff1673ffffffffffffffffffffffffffffffffffffffff1673ffffffffffffffffffffffffffffffffffffffff1681526020019081526020016000205403610a53576040517f08c379a0000000000000000000000000000000000000000000000000000000008152600401610a4a9061161f565b60405180910390fd5b6000600360008060009054906101000a900473ffffffffffffffffffffffffffffffffffffffff1673ffffffffffffffffffffffffffffffffffffffff1673ffffffffffffffffffffffffffffffffffffffff1681526020019081526020016000206004015414610af9576040517f08c379a0000000000000000000000000000000000000000000000000000000008152600401610af09061168b565b60405180910390fd5b600360008060009054906101000a900473ffffffffffffffffffffffffffffffffffffffff1673ffffffffffffffffffffffffffffffffffffffff1673ffffffffffffffffffffffffffffffffffffffff16815260200190815260200160002060000154600360008060009054906101000a900473ffffffffffffffffffffffffffffffffffffffff1673ffffffffffffffffffffffffffffffffffffffff1673ffffffffffffffffffffffffffffffffffffffff168152602001908152602001600020600101541015610c02576040517f08c379a0000000000000000000000000000000000000000000000000000000008152600401610bf9906116f7565b60405180910390fd5b600360008060009054906101000a900473ffffffffffffffffffffffffffffffffffffffff1673ffffffffffffffffffffffffffffffffffffffff1673ffffffffffffffffffffffffffffffffffffffff16815260200190815260200160002060050160009054906101000a900460ff1615610cb3576040517f08c379a0000000000000000000000000000000000000000000000000000000008152600401610caa9061122f565b60405180910390fd5b60008060009054906101000a900473ffffffffffffffffffffffffffffffffffffffff1673ffffffffffffffffffffffffffffffffffffffff16600360008060009054906101000a900473ffffffffffffffffffffffffffffffffffffffff1673ffffffffffffffffffffffffffffffffffffffff1673ffffffffffffffffffffffffffffffffffffffff16815260200190815260200160002060000154604051610d5d90611748565b60006040518083038185875af1925050503d8060008114610d9a576040519150601f19603f3d011682016040523d82523d6000602084013e610d9f565b606091505b5050905080610de3576040517f08c379a0000000000000000000000000000000000000000000000000000000008152600401610dda906117a9565b60405180910390fd5b600360008060009054906101000a900473ffffffffffffffffffffffffffffffffffffffff1673ffffffffffffffffffffffffffffffffffffffff1673ffffffffffffffffffffffffffffffffffffffff16815260200190815260200160002060000154600360008060009054906101000a900473ffffffffffffffffffffffffffffffffffffffff1673ffffffffffffffffffffffffffffffffffffffff1673ffffffffffffffffffffffffffffffffffffffff1681526020019081526020016000206004016000828254610eb991906114d4565b9250508190555050565b60036020528060005260406000206000915090508060000154908060010154908060020154908060030154908060040154908060050160009054906101000a900460ff16905086565b60026020528060005260406000206000915090505481565b600073ffffffffffffffffffffffffffffffffffffffff82169050919050565b6000610f4f82610f24565b9050919050565b610f5f81610f44565b82525050565b6000602082019050610f7a6000830184610f56565b92915050565b6000819050919050565b610f9381610f80565b82525050565b6000602082019050610fae6000830184610f8a565b92915050565b600080fd5b610fc281610f80565b8114610fcd57600080fd5b50565b600081359050610fdf81610fb9565b92915050565b60008060408385031215610ffc57610ffb610fb4565b5b600061100a85828601610fd0565b925050602061101b85828601610fd0565b9150509250929050565b61102e81610f44565b811461103957600080fd5b50565b60008135905061104b81611025565b92915050565b60006020828403121561106757611066610fb4565b5b60006110758482850161103c565b91505092915050565b60008115159050919050565b6110938161107e565b82525050565b600060c0820190506110ae6000830189610f8a565b6110bb6020830188610f8a565b6110c86040830187610f8a565b6110d56060830186610f8a565b6110e26080830185610f8a565b6110ef60a083018461108a565b979650505050505050565b600082825260208201905092915050565b7f4e6f206c6f616e20617661696c61626c6520746f207061790000000000000000600082015250565b60006111416018836110fa565b915061114c8261110b565b602082019050919050565b6000602082019050818103600083015261117081611134565b9050919050565b7f496e73756666696369656e742020616d6f756e74000000000000000000000000600082015250565b60006111ad6014836110fa565b91506111b882611177565b602082019050919050565b600060208201905081810360008301526111dc816111a0565b9050919050565b7f6c6f616e206e6f74206469736275727365640000000000000000000000000000600082015250565b60006112196012836110fa565b9150611224826111e3565b602082019050919050565b600060208201905081810360008301526112488161120c565b9050919050565b7f4e487b7100000000000000000000000000000000000000000000000000000000600052601160045260246000fd5b600061128982610f80565b915061129483610f80565b92508282039050818111156112ac576112ab61124f565b5b92915050565b7f4f6e6c7920636f6e7472616374206f776e65722063616e20706572666f726d2060008201527f7468697320616374696f6e000000000000000000000000000000000000000000602082015250565b600061130e602b836110fa565b9150611319826112b2565b604082019050919050565b6000602082019050818103600083015261133d81611301565b9050919050565b7f4c6f616e20616d6f756e74206d7573742062652067726561746572207468616e60008201527f207a65726f000000000000000000000000000000000000000000000000000000602082015250565b60006113a06025836110fa565b91506113ab82611344565b604082019050919050565b600060208201905081810360008301526113cf81611393565b9050919050565b7f436f6c6c61746572616c20616d6f756e74206d7573742062652067726561746560008201527f72207468616e207a65726f000000000000000000000000000000000000000000602082015250565b6000611432602b836110fa565b915061143d826113d6565b604082019050919050565b6000602082019050818103600083015261146181611425565b9050919050565b7f6c6f616e20616c72656164792065786973740000000000000000000000000000600082015250565b600061149e6012836110fa565b91506114a982611468565b602082019050919050565b600060208201905081810360008301526114cd81611491565b9050919050565b60006114df82610f80565b91506114ea83610f80565b92508282019050808211156115025761150161124f565b5b92915050565b600061151382610f80565b915061151e83610f80565b925082820261152c81610f80565b915082820484148315176115435761154261124f565b5b5092915050565b7f4e487b7100000000000000000000000000000000000000000000000000000000600052601260045260246000fd5b600061158482610f80565b915061158f83610f80565b92508261159f5761159e61154a565b5b828204905092915050565b60006040820190506115bf6000830185610f8a565b6115cc6020830184610f8a565b9392505050565b7f796f7520646f206e6f74206861766520636f6c6c61746572616c000000000000600082015250565b6000611609601a836110fa565b9150611614826115d3565b602082019050919050565b60006020820190508181036000830152611638816115fc565b9050919050565b7f77616c6c6574206d757374206265207a65726f00000000000000000000000000600082015250565b60006116756013836110fa565b91506116808261163f565b602082019050919050565b600060208201905081810360008301526116a481611668565b9050919050565b7f596f757220636f6c6c61746572616c20697320746f6f206c6f77000000000000600082015250565b60006116e1601a836110fa565b91506116ec826116ab565b602082019050919050565b60006020820190508181036000830152611710816116d4565b9050919050565b600081905092915050565b50565b6000611732600083611717565b915061173d82611722565b600082019050919050565b600061175382611725565b9150819050919050565b7f4661696c656420746f2073656e64204574686572000000000000000000000000600082015250565b60006117936014836110fa565b915061179e8261175d565b602082019050919050565b600060208201905081810360008301526117c281611786565b905091905056fea26469706673582212208a563edd01c374b76739e34cac1ed1fb174a47fa5a2362d505db722401436b8f64736f6c63430008110033",
  "linkReferences": {},
  "deployedLinkReferences": {}
}