{
  "_format": "hh-sol-artifact-1",
  "contractName": "CryptoWalletInsurance",
  "sourceName": "contracts/CryptoWalletInsurance.sol",
  "abi": [
    {
      "inputs": [
        {
          "internalType": "uint256",
          "name": "_insuredAmount",
          "type": "uint256"
        }
      ],
      "stateMutability": "nonpayable",
      "type": "constructor"
    },
    {
      "anonymous": false,
      "inputs": [
        {
          "indexed": true,
          "internalType": "address",
          "name": "claimant",
          "type": "address"
        },
        {
          "indexed": false,
          "internalType": "uint256",
          "name": "amount",
          "type": "uint256"
        }
      ],
      "name": "InsuranceClaimed",
      "type": "event"
    },
    {
      "anonymous": false,
      "inputs": [
        {
          "indexed": true,
          "internalType": "address",
          "name": "payer",
          "type": "address"
        },
        {
          "indexed": false,
          "internalType": "uint256",
          "name": "amount",
          "type": "uint256"
        }
      ],
      "name": "InsurancePaymentReceived",
      "type": "event"
    },
    {
      "inputs": [],
      "name": "claimInsurance",
      "outputs": [],
      "stateMutability": "payable",
      "type": "function"
    },
    {
      "inputs": [],
      "name": "getwalletBalance",
      "outputs": [
        {
          "internalType": "uint256",
          "name": "",
          "type": "uint256"
        }
      ],
      "stateMutability": "view",
      "type": "function"
    },
    {
      "inputs": [],
      "name": "getwalletTokenBalance",
      "outputs": [
        {
          "internalType": "uint256",
          "name": "",
          "type": "uint256"
        }
      ],
      "stateMutability": "view",
      "type": "function"
    },
    {
      "inputs": [],
      "name": "insuranceCoverageTime",
      "outputs": [
        {
          "internalType": "uint256",
          "name": "",
          "type": "uint256"
        }
      ],
      "stateMutability": "view",
      "type": "function"
    },
    {
      "inputs": [],
      "name": "insured",
      "outputs": [
        {
          "internalType": "bool",
          "name": "",
          "type": "bool"
        }
      ],
      "stateMutability": "view",
      "type": "function"
    },
    {
      "inputs": [],
      "name": "insuredAmount",
      "outputs": [
        {
          "internalType": "uint256",
          "name": "",
          "type": "uint256"
        }
      ],
      "stateMutability": "view",
      "type": "function"
    },
    {
      "inputs": [],
      "name": "owner",
      "outputs": [
        {
          "internalType": "address",
          "name": "",
          "type": "address"
        }
      ],
      "stateMutability": "view",
      "type": "function"
    },
    {
      "inputs": [],
      "name": "payInsurance",
      "outputs": [],
      "stateMutability": "payable",
      "type": "function"
    },
    {
      "inputs": [],
      "name": "token",
      "outputs": [
        {
          "internalType": "uint256",
          "name": "",
          "type": "uint256"
        }
      ],
      "stateMutability": "view",
      "type": "function"
    },
    {
      "inputs": [
        {
          "internalType": "address",
          "name": "",
          "type": "address"
        }
      ],
      "name": "walletBalance",
      "outputs": [
        {
          "internalType": "uint256",
          "name": "",
          "type": "uint256"
        }
      ],
      "stateMutability": "view",
      "type": "function"
    },
    {
      "inputs": [
        {
          "internalType": "address",
          "name": "",
          "type": "address"
        }
      ],
      "name": "walletTokenBalance",
      "outputs": [
        {
          "internalType": "uint256",
          "name": "",
          "type": "uint256"
        }
      ],
      "stateMutability": "view",
      "type": "function"
    }
  ],
  "bytecode": "0x608060405234801561001057600080fd5b506040516110bf3803806110bf833981810160405281019061003291906100ba565b326000806101000a81548173ffffffffffffffffffffffffffffffffffffffff021916908373ffffffffffffffffffffffffffffffffffffffff16021790555080600181905550506100e7565b600080fd5b6000819050919050565b61009781610084565b81146100a257600080fd5b50565b6000815190506100b48161008e565b92915050565b6000602082840312156100d0576100cf61007f565b5b60006100de848285016100a5565b91505092915050565b610fc9806100f66000396000f3fe60806040526004361061009c5760003560e01c8063a75ac60811610064578063a75ac60814610169578063cf9cd8f814610173578063db342e10146101b0578063eebb1363146101db578063f071684614610206578063fc0c546a146102315761009c565b8063138d2fb8146100a1578063210e200a146100cc57806368a74d5414610109578063770dd2b0146101135780638da5cb5b1461013e575b600080fd5b3480156100ad57600080fd5b506100b661025c565b6040516100c3919061095a565b60405180910390f35b3480156100d857600080fd5b506100f360048036038101906100ee91906109d8565b6102a3565b604051610100919061095a565b60405180910390f35b6101116102bb565b005b34801561011f57600080fd5b50610128610524565b604051610135919061095a565b60405180910390f35b34801561014a57600080fd5b5061015361052a565b6040516101609190610a14565b60405180910390f35b61017161054e565b005b34801561017f57600080fd5b5061019a600480360381019061019591906109d8565b6108c3565b6040516101a7919061095a565b60405180910390f35b3480156101bc57600080fd5b506101c56108db565b6040516101d2919061095a565b60405180910390f35b3480156101e757600080fd5b506101f06108e1565b6040516101fd9190610a4a565b60405180910390f35b34801561021257600080fd5b5061021b6108f4565b604051610228919061095a565b60405180910390f35b34801561023d57600080fd5b5061024661093b565b604051610253919061095a565b60405180910390f35b6000600560003373ffffffffffffffffffffffffffffffffffffffff1673ffffffffffffffffffffffffffffffffffffffff16815260200190815260200160002054905090565b60056020528060005260406000206000915090505481565b600060149054906101000a900460ff161561030b576040517f08c379a000000000000000000000000000000000000000000000000000000000815260040161030290610ac2565b60405180910390fd5b600154341015610350576040517f08c379a000000000000000000000000000000000000000000000000000000000815260040161034790610b2e565b60405180910390fd5b6003544211610394576040517f08c379a000000000000000000000000000000000000000000000000000000000815260040161038b90610b9a565b60405180910390fd5b34600460008060009054906101000a900473ffffffffffffffffffffffffffffffffffffffff1673ffffffffffffffffffffffffffffffffffffffff1673ffffffffffffffffffffffffffffffffffffffff16815260200190815260200160002060008282546104049190610be9565b92505081905550670de0b6b3a76400003410156104645762278d004261042a9190610be9565b600381905550633b9aca006003546004346104459190610c1d565b61044f9190610c1d565b6104599190610c8e565b6002819055506104b9565b670de0b6b3a764000034106104b857624f1a00426104829190610be9565b6003819055506305f5e10060035460093461049d9190610c1d565b6104a79190610c1d565b6104b19190610c8e565b6002819055505b5b6001600060146101000a81548160ff0219169083151502179055503373ffffffffffffffffffffffffffffffffffffffff167f82abc28d50304db161f118aaeecbe75cdfe9829695d3818fe543ac37d5e81a9d3460405161051a919061095a565b60405180910390a2565b60035481565b60008054906101000a900473ffffffffffffffffffffffffffffffffffffffff1681565b60008054906101000a900473ffffffffffffffffffffffffffffffffffffffff1673ffffffffffffffffffffffffffffffffffffffff163373ffffffffffffffffffffffffffffffffffffffff16146105dc576040517f08c379a00000000000000000000000000000000000000000000000000000000081526004016105d390610d31565b60405180910390fd5b600060149054906101000a900460ff1661062b576040517f08c379a000000000000000000000000000000000000000000000000000000000815260040161062290610d9d565b60405180910390fd5b600354421161066f576040517f08c379a000000000000000000000000000000000000000000000000000000000815260040161066690610e2f565b60405180910390fd5b6000600460008060009054906101000a900473ffffffffffffffffffffffffffffffffffffffff1673ffffffffffffffffffffffffffffffffffffffff1673ffffffffffffffffffffffffffffffffffffffff1681526020019081526020016000205403610712576040517f08c379a000000000000000000000000000000000000000000000000000000000815260040161070990610ec1565b60405180910390fd5b60008060146101000a81548160ff021916908315150217905550600254600560008060009054906101000a900473ffffffffffffffffffffffffffffffffffffffff1673ffffffffffffffffffffffffffffffffffffffff1673ffffffffffffffffffffffffffffffffffffffff168152602001908152602001600020600082825461079e9190610be9565b9250508190555060008060009054906101000a900473ffffffffffffffffffffffffffffffffffffffff1673ffffffffffffffffffffffffffffffffffffffff16476040516107ec90610f12565b60006040518083038185875af1925050503d8060008114610829576040519150601f19603f3d011682016040523d82523d6000602084013e61082e565b606091505b5050905080610872576040517f08c379a000000000000000000000000000000000000000000000000000000000815260040161086990610f73565b60405180910390fd5b3373ffffffffffffffffffffffffffffffffffffffff167fd1ecb6c48be11bc10ebf5b0c43978edf1b7fcbc3f5adb6a5ea66952d6a73f72a476040516108b8919061095a565b60405180910390a250565b60046020528060005260406000206000915090505481565b60015481565b600060149054906101000a900460ff1681565b6000600460003373ffffffffffffffffffffffffffffffffffffffff1673ffffffffffffffffffffffffffffffffffffffff16815260200190815260200160002054905090565b60025481565b6000819050919050565b61095481610941565b82525050565b600060208201905061096f600083018461094b565b92915050565b600080fd5b600073ffffffffffffffffffffffffffffffffffffffff82169050919050565b60006109a58261097a565b9050919050565b6109b58161099a565b81146109c057600080fd5b50565b6000813590506109d2816109ac565b92915050565b6000602082840312156109ee576109ed610975565b5b60006109fc848285016109c3565b91505092915050565b610a0e8161099a565b82525050565b6000602082019050610a296000830184610a05565b92915050565b60008115159050919050565b610a4481610a2f565b82525050565b6000602082019050610a5f6000830184610a3b565b92915050565b600082825260208201905092915050565b7f5573657220616c726561647920696e7375726564000000000000000000000000600082015250565b6000610aac601483610a65565b9150610ab782610a76565b602082019050919050565b60006020820190508181036000830152610adb81610a9f565b9050919050565b7f496e76616c696420616d6f756e74000000000000000000000000000000000000600082015250565b6000610b18600e83610a65565b9150610b2382610ae2565b602082019050919050565b60006020820190508181036000830152610b4781610b0b565b9050919050565b7f596f752063616e6e6f7420706179206e6f770000000000000000000000000000600082015250565b6000610b84601283610a65565b9150610b8f82610b4e565b602082019050919050565b60006020820190508181036000830152610bb381610b77565b9050919050565b7f4e487b7100000000000000000000000000000000000000000000000000000000600052601160045260246000fd5b6000610bf482610941565b9150610bff83610941565b9250828201905080821115610c1757610c16610bba565b5b92915050565b6000610c2882610941565b9150610c3383610941565b9250828202610c4181610941565b91508282048414831517610c5857610c57610bba565b5b5092915050565b7f4e487b7100000000000000000000000000000000000000000000000000000000600052601260045260246000fd5b6000610c9982610941565b9150610ca483610941565b925082610cb457610cb3610c5f565b5b828204905092915050565b7f4f6e6c7920636f6e7472616374206f776e65722063616e20706572666f726d2060008201527f7468697320616374696f6e000000000000000000000000000000000000000000602082015250565b6000610d1b602b83610a65565b9150610d2682610cbf565b604082019050919050565b60006020820190508181036000830152610d4a81610d0e565b9050919050565b7f596f7520617265206e6f7420696e737572656400000000000000000000000000600082015250565b6000610d87601383610a65565b9150610d9282610d51565b602082019050919050565b60006020820190508181036000830152610db681610d7a565b9050919050565b7f596f757220696e737572616e636520686173206e6f742065787069726564207960008201527f6574000000000000000000000000000000000000000000000000000000000000602082015250565b6000610e19602283610a65565b9150610e2482610dbd565b604082019050919050565b60006020820190508181036000830152610e4881610e0c565b9050919050565b7f596f752068617665206e6f74207061696420666f7220796f757220696e73757260008201527f616e636500000000000000000000000000000000000000000000000000000000602082015250565b6000610eab602483610a65565b9150610eb682610e4f565b604082019050919050565b60006020820190508181036000830152610eda81610e9e565b9050919050565b600081905092915050565b50565b6000610efc600083610ee1565b9150610f0782610eec565b600082019050919050565b6000610f1d82610eef565b9150819050919050565b7f4661696c656420746f2073656e64204574686572000000000000000000000000600082015250565b6000610f5d601483610a65565b9150610f6882610f27565b602082019050919050565b60006020820190508181036000830152610f8c81610f50565b905091905056fea264697066735822122060d3bae04b61577baa82af97972c43a9243cffaccf07ea0da48402775419a8d264736f6c63430008110033",
  "linkReferences": {},
  "deployedLinkReferences": {}
}