{
  "_format": "hh-sol-artifact-1",
  "contractName": "CryptoWalletInsurance",
  "sourceName": "contracts/CryptoWalletInsurance.sol",
  "abi": [
    {
      "inputs": [
        {
          "internalType": "uint256",
          "name": "_insuredAmount",
          "type": "uint256"
        }
      ],
      "stateMutability": "nonpayable",
      "type": "constructor"
    },
    {
      "anonymous": false,
      "inputs": [
        {
          "indexed": true,
          "internalType": "address",
          "name": "claimant",
          "type": "address"
        },
        {
          "indexed": false,
          "internalType": "uint256",
          "name": "amount",
          "type": "uint256"
        }
      ],
      "name": "InsuranceClaimed",
      "type": "event"
    },
    {
      "anonymous": false,
      "inputs": [
        {
          "indexed": true,
          "internalType": "address",
          "name": "payer",
          "type": "address"
        },
        {
          "indexed": false,
          "internalType": "uint256",
          "name": "amount",
          "type": "uint256"
        }
      ],
      "name": "InsurancePaymentReceived",
      "type": "event"
    },
    {
      "inputs": [],
      "name": "claimInsurance",
      "outputs": [],
      "stateMutability": "payable",
      "type": "function"
    },
    {
      "inputs": [],
      "name": "getwalletBalance",
      "outputs": [
        {
          "internalType": "uint256",
          "name": "",
          "type": "uint256"
        }
      ],
      "stateMutability": "view",
      "type": "function"
    },
    {
      "inputs": [],
      "name": "getwalletTokenBalance",
      "outputs": [
        {
          "internalType": "uint256",
          "name": "",
          "type": "uint256"
        }
      ],
      "stateMutability": "view",
      "type": "function"
    },
    {
      "inputs": [],
      "name": "insuranceCoverageTime",
      "outputs": [
        {
          "internalType": "uint256",
          "name": "",
          "type": "uint256"
        }
      ],
      "stateMutability": "view",
      "type": "function"
    },
    {
      "inputs": [],
      "name": "insured",
      "outputs": [
        {
          "internalType": "bool",
          "name": "",
          "type": "bool"
        }
      ],
      "stateMutability": "view",
      "type": "function"
    },
    {
      "inputs": [],
      "name": "insuredAmount",
      "outputs": [
        {
          "internalType": "uint256",
          "name": "",
          "type": "uint256"
        }
      ],
      "stateMutability": "view",
      "type": "function"
    },
    {
      "inputs": [],
      "name": "owner",
      "outputs": [
        {
          "internalType": "address",
          "name": "",
          "type": "address"
        }
      ],
      "stateMutability": "view",
      "type": "function"
    },
    {
      "inputs": [],
      "name": "payInsurance",
      "outputs": [],
      "stateMutability": "payable",
      "type": "function"
    },
    {
      "inputs": [],
      "name": "token",
      "outputs": [
        {
          "internalType": "uint256",
          "name": "",
          "type": "uint256"
        }
      ],
      "stateMutability": "view",
      "type": "function"
    },
    {
      "inputs": [
        {
          "internalType": "address",
          "name": "",
          "type": "address"
        }
      ],
      "name": "walletBalance",
      "outputs": [
        {
          "internalType": "uint256",
          "name": "",
          "type": "uint256"
        }
      ],
      "stateMutability": "view",
      "type": "function"
    },
    {
      "inputs": [
        {
          "internalType": "address",
          "name": "",
          "type": "address"
        }
      ],
      "name": "walletTokenBalance",
      "outputs": [
        {
          "internalType": "uint256",
          "name": "",
          "type": "uint256"
        }
      ],
      "stateMutability": "view",
      "type": "function"
    }
  ],
  "bytecode": "0x608060405234801561001057600080fd5b506040516110bb3803806110bb833981810160405281019061003291906100ba565b326000806101000a81548173ffffffffffffffffffffffffffffffffffffffff021916908373ffffffffffffffffffffffffffffffffffffffff16021790555080600181905550506100e7565b600080fd5b6000819050919050565b61009781610084565b81146100a257600080fd5b50565b6000815190506100b48161008e565b92915050565b6000602082840312156100d0576100cf61007f565b5b60006100de848285016100a5565b91505092915050565b610fc5806100f66000396000f3fe60806040526004361061009c5760003560e01c8063a75ac60811610064578063a75ac60814610169578063cf9cd8f814610173578063db342e10146101b0578063eebb1363146101db578063f071684614610206578063fc0c546a146102315761009c565b8063138d2fb8146100a1578063210e200a146100cc57806368a74d5414610109578063770dd2b0146101135780638da5cb5b1461013e575b600080fd5b3480156100ad57600080fd5b506100b661025c565b6040516100c39190610956565b60405180910390f35b3480156100d857600080fd5b506100f360048036038101906100ee91906109d4565b6102a3565b6040516101009190610956565b60405180910390f35b6101116102bb565b005b34801561011f57600080fd5b50610128610520565b6040516101359190610956565b60405180910390f35b34801561014a57600080fd5b50610153610526565b6040516101609190610a10565b60405180910390f35b61017161054a565b005b34801561017f57600080fd5b5061019a600480360381019061019591906109d4565b6108bf565b6040516101a79190610956565b60405180910390f35b3480156101bc57600080fd5b506101c56108d7565b6040516101d29190610956565b60405180910390f35b3480156101e757600080fd5b506101f06108dd565b6040516101fd9190610a46565b60405180910390f35b34801561021257600080fd5b5061021b6108f0565b6040516102289190610956565b60405180910390f35b34801561023d57600080fd5b50610246610937565b6040516102539190610956565b60405180910390f35b6000600560003373ffffffffffffffffffffffffffffffffffffffff1673ffffffffffffffffffffffffffffffffffffffff16815260200190815260200160002054905090565b60056020528060005260406000206000915090505481565b600060149054906101000a900460ff161561030b576040517f08c379a000000000000000000000000000000000000000000000000000000000815260040161030290610abe565b60405180910390fd5b600154341015610350576040517f08c379a000000000000000000000000000000000000000000000000000000000815260040161034790610b2a565b60405180910390fd5b6003544211610394576040517f08c379a000000000000000000000000000000000000000000000000000000000815260040161038b90610b96565b60405180910390fd5b34600460008060009054906101000a900473ffffffffffffffffffffffffffffffffffffffff1673ffffffffffffffffffffffffffffffffffffffff1673ffffffffffffffffffffffffffffffffffffffff16815260200190815260200160002060008282546104049190610be5565b92505081905550670de0b6b3a7640000341015610462576014426104289190610be5565b600381905550633b9aca006003546004346104439190610c19565b61044d9190610c19565b6104579190610c8a565b6002819055506104b5565b670de0b6b3a764000034106104b457601e4261047e9190610be5565b6003819055506305f5e1006003546009346104999190610c19565b6104a39190610c19565b6104ad9190610c8a565b6002819055505b5b6001600060146101000a81548160ff0219169083151502179055503373ffffffffffffffffffffffffffffffffffffffff167f82abc28d50304db161f118aaeecbe75cdfe9829695d3818fe543ac37d5e81a9d346040516105169190610956565b60405180910390a2565b60035481565b60008054906101000a900473ffffffffffffffffffffffffffffffffffffffff1681565b60008054906101000a900473ffffffffffffffffffffffffffffffffffffffff1673ffffffffffffffffffffffffffffffffffffffff163373ffffffffffffffffffffffffffffffffffffffff16146105d8576040517f08c379a00000000000000000000000000000000000000000000000000000000081526004016105cf90610d2d565b60405180910390fd5b600060149054906101000a900460ff16610627576040517f08c379a000000000000000000000000000000000000000000000000000000000815260040161061e90610d99565b60405180910390fd5b600354421161066b576040517f08c379a000000000000000000000000000000000000000000000000000000000815260040161066290610e2b565b60405180910390fd5b6000600460008060009054906101000a900473ffffffffffffffffffffffffffffffffffffffff1673ffffffffffffffffffffffffffffffffffffffff1673ffffffffffffffffffffffffffffffffffffffff168152602001908152602001600020540361070e576040517f08c379a000000000000000000000000000000000000000000000000000000000815260040161070590610ebd565b60405180910390fd5b60008060146101000a81548160ff021916908315150217905550600254600560008060009054906101000a900473ffffffffffffffffffffffffffffffffffffffff1673ffffffffffffffffffffffffffffffffffffffff1673ffffffffffffffffffffffffffffffffffffffff168152602001908152602001600020600082825461079a9190610be5565b9250508190555060008060009054906101000a900473ffffffffffffffffffffffffffffffffffffffff1673ffffffffffffffffffffffffffffffffffffffff16476040516107e890610f0e565b60006040518083038185875af1925050503d8060008114610825576040519150601f19603f3d011682016040523d82523d6000602084013e61082a565b606091505b505090508061086e576040517f08c379a000000000000000000000000000000000000000000000000000000000815260040161086590610f6f565b60405180910390fd5b3373ffffffffffffffffffffffffffffffffffffffff167fd1ecb6c48be11bc10ebf5b0c43978edf1b7fcbc3f5adb6a5ea66952d6a73f72a476040516108b49190610956565b60405180910390a250565b60046020528060005260406000206000915090505481565b60015481565b600060149054906101000a900460ff1681565b6000600460003373ffffffffffffffffffffffffffffffffffffffff1673ffffffffffffffffffffffffffffffffffffffff16815260200190815260200160002054905090565b60025481565b6000819050919050565b6109508161093d565b82525050565b600060208201905061096b6000830184610947565b92915050565b600080fd5b600073ffffffffffffffffffffffffffffffffffffffff82169050919050565b60006109a182610976565b9050919050565b6109b181610996565b81146109bc57600080fd5b50565b6000813590506109ce816109a8565b92915050565b6000602082840312156109ea576109e9610971565b5b60006109f8848285016109bf565b91505092915050565b610a0a81610996565b82525050565b6000602082019050610a256000830184610a01565b92915050565b60008115159050919050565b610a4081610a2b565b82525050565b6000602082019050610a5b6000830184610a37565b92915050565b600082825260208201905092915050565b7f5573657220616c726561647920696e7375726564000000000000000000000000600082015250565b6000610aa8601483610a61565b9150610ab382610a72565b602082019050919050565b60006020820190508181036000830152610ad781610a9b565b9050919050565b7f496e76616c696420616d6f756e74000000000000000000000000000000000000600082015250565b6000610b14600e83610a61565b9150610b1f82610ade565b602082019050919050565b60006020820190508181036000830152610b4381610b07565b9050919050565b7f596f752063616e6e6f7420706179206e6f770000000000000000000000000000600082015250565b6000610b80601283610a61565b9150610b8b82610b4a565b602082019050919050565b60006020820190508181036000830152610baf81610b73565b9050919050565b7f4e487b7100000000000000000000000000000000000000000000000000000000600052601160045260246000fd5b6000610bf08261093d565b9150610bfb8361093d565b9250828201905080821115610c1357610c12610bb6565b5b92915050565b6000610c248261093d565b9150610c2f8361093d565b9250828202610c3d8161093d565b91508282048414831517610c5457610c53610bb6565b5b5092915050565b7f4e487b7100000000000000000000000000000000000000000000000000000000600052601260045260246000fd5b6000610c958261093d565b9150610ca08361093d565b925082610cb057610caf610c5b565b5b828204905092915050565b7f4f6e6c7920636f6e7472616374206f776e65722063616e20706572666f726d2060008201527f7468697320616374696f6e000000000000000000000000000000000000000000602082015250565b6000610d17602b83610a61565b9150610d2282610cbb565b604082019050919050565b60006020820190508181036000830152610d4681610d0a565b9050919050565b7f596f7520617265206e6f7420696e737572656400000000000000000000000000600082015250565b6000610d83601383610a61565b9150610d8e82610d4d565b602082019050919050565b60006020820190508181036000830152610db281610d76565b9050919050565b7f596f757220696e737572616e636520686173206e6f742065787069726564207960008201527f6574000000000000000000000000000000000000000000000000000000000000602082015250565b6000610e15602283610a61565b9150610e2082610db9565b604082019050919050565b60006020820190508181036000830152610e4481610e08565b9050919050565b7f596f752068617665206e6f74207061696420666f7220796f757220696e73757260008201527f616e636500000000000000000000000000000000000000000000000000000000602082015250565b6000610ea7602483610a61565b9150610eb282610e4b565b604082019050919050565b60006020820190508181036000830152610ed681610e9a565b9050919050565b600081905092915050565b50565b6000610ef8600083610edd565b9150610f0382610ee8565b600082019050919050565b6000610f1982610eeb565b9150819050919050565b7f4661696c656420746f2073656e64204574686572000000000000000000000000600082015250565b6000610f59601483610a61565b9150610f6482610f23565b602082019050919050565b60006020820190508181036000830152610f8881610f4c565b905091905056fea2646970667358221220b97ae330353119d3b4b709d6e5c5d18f937dfe795f194b693ffd85aa066c60c364736f6c63430008110033",
  "linkReferences": {},
  "deployedLinkReferences": {}
}