{
  "_format": "hh-sol-artifact-1",
  "contractName": "InsuranceFactory",
  "sourceName": "contracts/InsuranceFactory.sol",
  "abi": [
    {
      "anonymous": false,
      "inputs": [
        {
          "indexed": true,
          "internalType": "address",
          "name": "user",
          "type": "address"
        },
        {
          "indexed": false,
          "internalType": "address",
          "name": "insuranceContract",
          "type": "address"
        }
      ],
      "name": "CollateralProtectionInsuranceCreated",
      "type": "event"
    },
    {
      "anonymous": false,
      "inputs": [
        {
          "indexed": true,
          "internalType": "address",
          "name": "user",
          "type": "address"
        },
        {
          "indexed": false,
          "internalType": "address",
          "name": "insuranceContract",
          "type": "address"
        }
      ],
      "name": "CryptoWalletInsuranceCreated",
      "type": "event"
    },
    {
      "inputs": [],
      "name": "createCollateralProtectionInsurance",
      "outputs": [],
      "stateMutability": "nonpayable",
      "type": "function"
    },
    {
      "inputs": [
        {
          "internalType": "uint256",
          "name": "_insuredAmount",
          "type": "uint256"
        }
      ],
      "name": "createCryptoWalletInsurance",
      "outputs": [],
      "stateMutability": "nonpayable",
      "type": "function"
    },
    {
      "inputs": [],
      "name": "getContract",
      "outputs": [
        {
          "internalType": "address",
          "name": "",
          "type": "address"
        }
      ],
      "stateMutability": "view",
      "type": "function"
    },
    {
      "inputs": [
        {
          "internalType": "address",
          "name": "",
          "type": "address"
        }
      ],
      "name": "userInsuranceContracts",
      "outputs": [
        {
          "internalType": "address",
          "name": "",
          "type": "address"
        }
      ],
      "stateMutability": "view",
      "type": "function"
    }
  ],
  "bytecode": "0x608060405234801561001057600080fd5b5061304e806100206000396000f3fe608060405234801561001057600080fd5b506004361061004c5760003560e01c8063958f85bd14610051578063e5c3913f1461006f578063f1e3f1e71461008b578063f2b8b02714610095575b600080fd5b6100596100c5565b6040516100669190610555565b60405180910390f35b610089600480360381019061008491906105ab565b61012b565b005b6100936102ff565b005b6100af60048036038101906100aa9190610604565b6104c7565b6040516100bc9190610555565b60405180910390f35b60008060003373ffffffffffffffffffffffffffffffffffffffff1673ffffffffffffffffffffffffffffffffffffffff16815260200190815260200160002060009054906101000a900473ffffffffffffffffffffffffffffffffffffffff16905090565b600073ffffffffffffffffffffffffffffffffffffffff166000803373ffffffffffffffffffffffffffffffffffffffff1673ffffffffffffffffffffffffffffffffffffffff16815260200190815260200160002060009054906101000a900473ffffffffffffffffffffffffffffffffffffffff1673ffffffffffffffffffffffffffffffffffffffff16146101f8576040517f08c379a00000000000000000000000000000000000000000000000000000000081526004016101ef906106b4565b60405180910390fd5b600081604051610207906104fa565b61021191906106e3565b604051809103906000f08015801561022d573d6000803e3d6000fd5b509050806000803373ffffffffffffffffffffffffffffffffffffffff1673ffffffffffffffffffffffffffffffffffffffff16815260200190815260200160002060006101000a81548173ffffffffffffffffffffffffffffffffffffffff021916908373ffffffffffffffffffffffffffffffffffffffff1602179055503373ffffffffffffffffffffffffffffffffffffffff167f9af448a93d0fc7bdff1a2e96e050ca70eb257d63c460acffd78f8fe9c1e18b9d826040516102f39190610555565b60405180910390a25050565b600073ffffffffffffffffffffffffffffffffffffffff166000803373ffffffffffffffffffffffffffffffffffffffff1673ffffffffffffffffffffffffffffffffffffffff16815260200190815260200160002060009054906101000a900473ffffffffffffffffffffffffffffffffffffffff1673ffffffffffffffffffffffffffffffffffffffff16146103cc576040517f08c379a00000000000000000000000000000000000000000000000000000000081526004016103c3906106b4565b60405180910390fd5b60006040516103da90610507565b604051809103906000f0801580156103f6573d6000803e3d6000fd5b509050806000803373ffffffffffffffffffffffffffffffffffffffff1673ffffffffffffffffffffffffffffffffffffffff16815260200190815260200160002060006101000a81548173ffffffffffffffffffffffffffffffffffffffff021916908373ffffffffffffffffffffffffffffffffffffffff1602179055503373ffffffffffffffffffffffffffffffffffffffff167fa53013289050e8d17c6a5520dc96f6436225ad2895fd50eb42b1c3cc6854cb37826040516104bc9190610555565b60405180910390a250565b60006020528060005260406000206000915054906101000a900473ffffffffffffffffffffffffffffffffffffffff1681565b6110bb806106ff83390190565b61185f806117ba83390190565b600073ffffffffffffffffffffffffffffffffffffffff82169050919050565b600061053f82610514565b9050919050565b61054f81610534565b82525050565b600060208201905061056a6000830184610546565b92915050565b600080fd5b6000819050919050565b61058881610575565b811461059357600080fd5b50565b6000813590506105a58161057f565b92915050565b6000602082840312156105c1576105c0610570565b5b60006105cf84828501610596565b91505092915050565b6105e181610534565b81146105ec57600080fd5b50565b6000813590506105fe816105d8565b92915050565b60006020828403121561061a57610619610570565b5b6000610628848285016105ef565b91505092915050565b600082825260208201905092915050565b7f5573657220616c72656164792068617320616e20696e737572616e636520636f60008201527f6e74726163740000000000000000000000000000000000000000000000000000602082015250565b600061069e602683610631565b91506106a982610642565b604082019050919050565b600060208201905081810360008301526106cd81610691565b9050919050565b6106dd81610575565b82525050565b60006020820190506106f860008301846106d4565b9291505056fe608060405234801561001057600080fd5b506040516110bb3803806110bb833981810160405281019061003291906100ba565b326000806101000a81548173ffffffffffffffffffffffffffffffffffffffff021916908373ffffffffffffffffffffffffffffffffffffffff16021790555080600181905550506100e7565b600080fd5b6000819050919050565b61009781610084565b81146100a257600080fd5b50565b6000815190506100b48161008e565b92915050565b6000602082840312156100d0576100cf61007f565b5b60006100de848285016100a5565b91505092915050565b610fc5806100f66000396000f3fe60806040526004361061009c5760003560e01c8063a75ac60811610064578063a75ac60814610169578063cf9cd8f814610173578063db342e10146101b0578063eebb1363146101db578063f071684614610206578063fc0c546a146102315761009c565b8063138d2fb8146100a1578063210e200a146100cc57806368a74d5414610109578063770dd2b0146101135780638da5cb5b1461013e575b600080fd5b3480156100ad57600080fd5b506100b661025c565b6040516100c39190610956565b60405180910390f35b3480156100d857600080fd5b506100f360048036038101906100ee91906109d4565b6102a3565b6040516101009190610956565b60405180910390f35b6101116102bb565b005b34801561011f57600080fd5b50610128610520565b6040516101359190610956565b60405180910390f35b34801561014a57600080fd5b50610153610526565b6040516101609190610a10565b60405180910390f35b61017161054a565b005b34801561017f57600080fd5b5061019a600480360381019061019591906109d4565b6108bf565b6040516101a79190610956565b60405180910390f35b3480156101bc57600080fd5b506101c56108d7565b6040516101d29190610956565b60405180910390f35b3480156101e757600080fd5b506101f06108dd565b6040516101fd9190610a46565b60405180910390f35b34801561021257600080fd5b5061021b6108f0565b6040516102289190610956565b60405180910390f35b34801561023d57600080fd5b50610246610937565b6040516102539190610956565b60405180910390f35b6000600560003373ffffffffffffffffffffffffffffffffffffffff1673ffffffffffffffffffffffffffffffffffffffff16815260200190815260200160002054905090565b60056020528060005260406000206000915090505481565b600060149054906101000a900460ff161561030b576040517f08c379a000000000000000000000000000000000000000000000000000000000815260040161030290610abe565b60405180910390fd5b600154341015610350576040517f08c379a000000000000000000000000000000000000000000000000000000000815260040161034790610b2a565b60405180910390fd5b6003544211610394576040517f08c379a000000000000000000000000000000000000000000000000000000000815260040161038b90610b96565b60405180910390fd5b34600460008060009054906101000a900473ffffffffffffffffffffffffffffffffffffffff1673ffffffffffffffffffffffffffffffffffffffff1673ffffffffffffffffffffffffffffffffffffffff16815260200190815260200160002060008282546104049190610be5565b92505081905550670de0b6b3a7640000341015610462576014426104289190610be5565b600381905550633b9aca006003546004346104439190610c19565b61044d9190610c19565b6104579190610c8a565b6002819055506104b5565b670de0b6b3a764000034106104b457601e4261047e9190610be5565b6003819055506305f5e1006003546009346104999190610c19565b6104a39190610c19565b6104ad9190610c8a565b6002819055505b5b6001600060146101000a81548160ff0219169083151502179055503373ffffffffffffffffffffffffffffffffffffffff167f82abc28d50304db161f118aaeecbe75cdfe9829695d3818fe543ac37d5e81a9d346040516105169190610956565b60405180910390a2565b60035481565b60008054906101000a900473ffffffffffffffffffffffffffffffffffffffff1681565b60008054906101000a900473ffffffffffffffffffffffffffffffffffffffff1673ffffffffffffffffffffffffffffffffffffffff163373ffffffffffffffffffffffffffffffffffffffff16146105d8576040517f08c379a00000000000000000000000000000000000000000000000000000000081526004016105cf90610d2d565b60405180910390fd5b600060149054906101000a900460ff16610627576040517f08c379a000000000000000000000000000000000000000000000000000000000815260040161061e90610d99565b60405180910390fd5b600354421161066b576040517f08c379a000000000000000000000000000000000000000000000000000000000815260040161066290610e2b565b60405180910390fd5b6000600460008060009054906101000a900473ffffffffffffffffffffffffffffffffffffffff1673ffffffffffffffffffffffffffffffffffffffff1673ffffffffffffffffffffffffffffffffffffffff168152602001908152602001600020540361070e576040517f08c379a000000000000000000000000000000000000000000000000000000000815260040161070590610ebd565b60405180910390fd5b60008060146101000a81548160ff021916908315150217905550600254600560008060009054906101000a900473ffffffffffffffffffffffffffffffffffffffff1673ffffffffffffffffffffffffffffffffffffffff1673ffffffffffffffffffffffffffffffffffffffff168152602001908152602001600020600082825461079a9190610be5565b9250508190555060008060009054906101000a900473ffffffffffffffffffffffffffffffffffffffff1673ffffffffffffffffffffffffffffffffffffffff16476040516107e890610f0e565b60006040518083038185875af1925050503d8060008114610825576040519150601f19603f3d011682016040523d82523d6000602084013e61082a565b606091505b505090508061086e576040517f08c379a000000000000000000000000000000000000000000000000000000000815260040161086590610f6f565b60405180910390fd5b3373ffffffffffffffffffffffffffffffffffffffff167fd1ecb6c48be11bc10ebf5b0c43978edf1b7fcbc3f5adb6a5ea66952d6a73f72a476040516108b49190610956565b60405180910390a250565b60046020528060005260406000206000915090505481565b60015481565b600060149054906101000a900460ff1681565b6000600460003373ffffffffffffffffffffffffffffffffffffffff1673ffffffffffffffffffffffffffffffffffffffff16815260200190815260200160002054905090565b60025481565b6000819050919050565b6109508161093d565b82525050565b600060208201905061096b6000830184610947565b92915050565b600080fd5b600073ffffffffffffffffffffffffffffffffffffffff82169050919050565b60006109a182610976565b9050919050565b6109b181610996565b81146109bc57600080fd5b50565b6000813590506109ce816109a8565b92915050565b6000602082840312156109ea576109e9610971565b5b60006109f8848285016109bf565b91505092915050565b610a0a81610996565b82525050565b6000602082019050610a256000830184610a01565b92915050565b60008115159050919050565b610a4081610a2b565b82525050565b6000602082019050610a5b6000830184610a37565b92915050565b600082825260208201905092915050565b7f5573657220616c726561647920696e7375726564000000000000000000000000600082015250565b6000610aa8601483610a61565b9150610ab382610a72565b602082019050919050565b60006020820190508181036000830152610ad781610a9b565b9050919050565b7f496e76616c696420616d6f756e74000000000000000000000000000000000000600082015250565b6000610b14600e83610a61565b9150610b1f82610ade565b602082019050919050565b60006020820190508181036000830152610b4381610b07565b9050919050565b7f596f752063616e6e6f7420706179206e6f770000000000000000000000000000600082015250565b6000610b80601283610a61565b9150610b8b82610b4a565b602082019050919050565b60006020820190508181036000830152610baf81610b73565b9050919050565b7f4e487b7100000000000000000000000000000000000000000000000000000000600052601160045260246000fd5b6000610bf08261093d565b9150610bfb8361093d565b9250828201905080821115610c1357610c12610bb6565b5b92915050565b6000610c248261093d565b9150610c2f8361093d565b9250828202610c3d8161093d565b91508282048414831517610c5457610c53610bb6565b5b5092915050565b7f4e487b7100000000000000000000000000000000000000000000000000000000600052601260045260246000fd5b6000610c958261093d565b9150610ca08361093d565b925082610cb057610caf610c5b565b5b828204905092915050565b7f4f6e6c7920636f6e7472616374206f776e65722063616e20706572666f726d2060008201527f7468697320616374696f6e000000000000000000000000000000000000000000602082015250565b6000610d17602b83610a61565b9150610d2282610cbb565b604082019050919050565b60006020820190508181036000830152610d4681610d0a565b9050919050565b7f596f7520617265206e6f7420696e737572656400000000000000000000000000600082015250565b6000610d83601383610a61565b9150610d8e82610d4d565b602082019050919050565b60006020820190508181036000830152610db281610d76565b9050919050565b7f596f757220696e737572616e636520686173206e6f742065787069726564207960008201527f6574000000000000000000000000000000000000000000000000000000000000602082015250565b6000610e15602283610a61565b9150610e2082610db9565b604082019050919050565b60006020820190508181036000830152610e4481610e08565b9050919050565b7f596f752068617665206e6f74207061696420666f7220796f757220696e73757260008201527f616e636500000000000000000000000000000000000000000000000000000000602082015250565b6000610ea7602483610a61565b9150610eb282610e4b565b604082019050919050565b60006020820190508181036000830152610ed681610e9a565b9050919050565b600081905092915050565b50565b6000610ef8600083610edd565b9150610f0382610ee8565b600082019050919050565b6000610f1982610eeb565b9150819050919050565b7f4661696c656420746f2073656e64204574686572000000000000000000000000600082015250565b6000610f59601483610a61565b9150610f6482610f23565b602082019050919050565b60006020820190508181036000830152610f8881610f4c565b905091905056fea2646970667358221220b97ae330353119d3b4b709d6e5c5d18f937dfe795f194b693ffd85aa066c60c364736f6c63430008110033608060405234801561001057600080fd5b50326000806101000a81548173ffffffffffffffffffffffffffffffffffffffff021916908373ffffffffffffffffffffffffffffffffffffffff1602179055506117ff806100606000396000f3fe6080604052600436106100745760003560e01c806398cd90b51161004e57806398cd90b5146100e0578063b0857bb414610109578063b5e2ebc614610113578063e6a641e9146101555761007b565b8063472eb03d146100805780638da5cb5b1461008a5780638e8cfbde146100b55761007b565b3661007b57005b600080fd5b610088610192565b005b34801561009657600080fd5b5061009f610505565b6040516100ac9190610f65565b60405180910390f35b3480156100c157600080fd5b506100ca610529565b6040516100d79190610f99565b60405180910390f35b3480156100ec57600080fd5b5061010760048036038101906101029190610fe5565b61052f565b005b6101116109b0565b005b34801561011f57600080fd5b5061013a60048036038101906101359190611051565b610ec3565b60405161014c96959493929190611099565b60405180910390f35b34801561016157600080fd5b5061017c60048036038101906101779190611051565b610f0c565b6040516101899190610f99565b60405180910390f35b6000600360008060009054906101000a900473ffffffffffffffffffffffffffffffffffffffff1673ffffffffffffffffffffffffffffffffffffffff1673ffffffffffffffffffffffffffffffffffffffff1681526020019081526020016000206003015411610238576040517f08c379a000000000000000000000000000000000000000000000000000000000815260040161022f90611157565b60405180910390fd5b600360008060009054906101000a900473ffffffffffffffffffffffffffffffffffffffff1673ffffffffffffffffffffffffffffffffffffffff1673ffffffffffffffffffffffffffffffffffffffff168152602001908152602001600020600301543410156102de576040517f08c379a00000000000000000000000000000000000000000000000000000000081526004016102d5906111c3565b60405180910390fd5b600360008060009054906101000a900473ffffffffffffffffffffffffffffffffffffffff1673ffffffffffffffffffffffffffffffffffffffff1673ffffffffffffffffffffffffffffffffffffffff16815260200190815260200160002060050160009054906101000a900460ff161561038f576040517f08c379a00000000000000000000000000000000000000000000000000000000081526004016103869061122f565b60405180910390fd5b3073ffffffffffffffffffffffffffffffffffffffff166108fc349081150290604051600060405180830381858888f193505050501580156103d5573d6000803e3d6000fd5b5034600360008060009054906101000a900473ffffffffffffffffffffffffffffffffffffffff1673ffffffffffffffffffffffffffffffffffffffff1673ffffffffffffffffffffffffffffffffffffffff1681526020019081526020016000206003016000828254610449919061127e565b925050819055506000600260003373ffffffffffffffffffffffffffffffffffffffff1673ffffffffffffffffffffffffffffffffffffffff1681526020019081526020016000208190555060008054906101000a900473ffffffffffffffffffffffffffffffffffffffff1673ffffffffffffffffffffffffffffffffffffffff167f3db642b80902afb8ef23a2aeab4800b4b3717feb180705cf0a1c273ccc591c97346040516104fb9190610f99565b60405180910390a2565b60008054906101000a900473ffffffffffffffffffffffffffffffffffffffff1681565b60015481565b60008054906101000a900473ffffffffffffffffffffffffffffffffffffffff1673ffffffffffffffffffffffffffffffffffffffff163373ffffffffffffffffffffffffffffffffffffffff16146105bd576040517f08c379a00000000000000000000000000000000000000000000000000000000081526004016105b490611324565b60405180910390fd5b60008211610600576040517f08c379a00000000000000000000000000000000000000000000000000000000081526004016105f7906113b6565b60405180910390fd5b60008111610643576040517f08c379a000000000000000000000000000000000000000000000000000000000815260040161063a90611448565b60405180910390fd5b6000600360003373ffffffffffffffffffffffffffffffffffffffff1673ffffffffffffffffffffffffffffffffffffffff16815260200190815260200160002060000154146106c8576040517f08c379a00000000000000000000000000000000000000000000000000000000081526004016106bf906114b4565b60405180910390fd5b6706f05b59d3b200008211156107f2576040518060c00160405280838152602001828152602001601e426106fc91906114d4565b815260200160646014856107109190611508565b61071a9190611579565b8461072591906114d4565b81526020016000815260200160001515815250600360008060009054906101000a900473ffffffffffffffffffffffffffffffffffffffff1673ffffffffffffffffffffffffffffffffffffffff1673ffffffffffffffffffffffffffffffffffffffff168152602001908152602001600020600082015181600001556020820151816001015560408201518160020155606082015181600301556080820151816004015560a08201518160050160006101000a81548160ff021916908315150217905550905050610918565b6706f05b59d3b200008211610917576040518060c0016040528083815260200182815260200160144261082591906114d4565b81526020016064600a856108399190611508565b6108439190611579565b8461084e91906114d4565b81526020016000815260200160001515815250600360008060009054906101000a900473ffffffffffffffffffffffffffffffffffffffff1673ffffffffffffffffffffffffffffffffffffffff1673ffffffffffffffffffffffffffffffffffffffff168152602001908152602001600020600082015181600001556020820151816001015560408201518160020155606082015181600301556080820151816004015560a08201518160050160006101000a81548160ff0219169083151502179055509050505b5b80600260003373ffffffffffffffffffffffffffffffffffffffff1673ffffffffffffffffffffffffffffffffffffffff168152602001908152602001600020819055503373ffffffffffffffffffffffffffffffffffffffff167f58d170de3a12438e22d81380f353b2fcac86f0a708a1374deaa5c6322a95992f83836040516109a49291906115aa565b60405180910390a25050565b6000600260008060009054906101000a900473ffffffffffffffffffffffffffffffffffffffff1673ffffffffffffffffffffffffffffffffffffffff1673ffffffffffffffffffffffffffffffffffffffff1681526020019081526020016000205403610a53576040517f08c379a0000000000000000000000000000000000000000000000000000000008152600401610a4a9061161f565b60405180910390fd5b6000600360008060009054906101000a900473ffffffffffffffffffffffffffffffffffffffff1673ffffffffffffffffffffffffffffffffffffffff1673ffffffffffffffffffffffffffffffffffffffff1681526020019081526020016000206004015414610af9576040517f08c379a0000000000000000000000000000000000000000000000000000000008152600401610af09061168b565b60405180910390fd5b600360008060009054906101000a900473ffffffffffffffffffffffffffffffffffffffff1673ffffffffffffffffffffffffffffffffffffffff1673ffffffffffffffffffffffffffffffffffffffff16815260200190815260200160002060000154600360008060009054906101000a900473ffffffffffffffffffffffffffffffffffffffff1673ffffffffffffffffffffffffffffffffffffffff1673ffffffffffffffffffffffffffffffffffffffff168152602001908152602001600020600101541015610c02576040517f08c379a0000000000000000000000000000000000000000000000000000000008152600401610bf9906116f7565b60405180910390fd5b600360008060009054906101000a900473ffffffffffffffffffffffffffffffffffffffff1673ffffffffffffffffffffffffffffffffffffffff1673ffffffffffffffffffffffffffffffffffffffff16815260200190815260200160002060050160009054906101000a900460ff1615610cb3576040517f08c379a0000000000000000000000000000000000000000000000000000000008152600401610caa9061122f565b60405180910390fd5b60008060009054906101000a900473ffffffffffffffffffffffffffffffffffffffff1673ffffffffffffffffffffffffffffffffffffffff16600360008060009054906101000a900473ffffffffffffffffffffffffffffffffffffffff1673ffffffffffffffffffffffffffffffffffffffff1673ffffffffffffffffffffffffffffffffffffffff16815260200190815260200160002060000154604051610d5d90611748565b60006040518083038185875af1925050503d8060008114610d9a576040519150601f19603f3d011682016040523d82523d6000602084013e610d9f565b606091505b5050905080610de3576040517f08c379a0000000000000000000000000000000000000000000000000000000008152600401610dda906117a9565b60405180910390fd5b600360008060009054906101000a900473ffffffffffffffffffffffffffffffffffffffff1673ffffffffffffffffffffffffffffffffffffffff1673ffffffffffffffffffffffffffffffffffffffff16815260200190815260200160002060000154600360008060009054906101000a900473ffffffffffffffffffffffffffffffffffffffff1673ffffffffffffffffffffffffffffffffffffffff1673ffffffffffffffffffffffffffffffffffffffff1681526020019081526020016000206004016000828254610eb991906114d4565b9250508190555050565b60036020528060005260406000206000915090508060000154908060010154908060020154908060030154908060040154908060050160009054906101000a900460ff16905086565b60026020528060005260406000206000915090505481565b600073ffffffffffffffffffffffffffffffffffffffff82169050919050565b6000610f4f82610f24565b9050919050565b610f5f81610f44565b82525050565b6000602082019050610f7a6000830184610f56565b92915050565b6000819050919050565b610f9381610f80565b82525050565b6000602082019050610fae6000830184610f8a565b92915050565b600080fd5b610fc281610f80565b8114610fcd57600080fd5b50565b600081359050610fdf81610fb9565b92915050565b60008060408385031215610ffc57610ffb610fb4565b5b600061100a85828601610fd0565b925050602061101b85828601610fd0565b9150509250929050565b61102e81610f44565b811461103957600080fd5b50565b60008135905061104b81611025565b92915050565b60006020828403121561106757611066610fb4565b5b60006110758482850161103c565b91505092915050565b60008115159050919050565b6110938161107e565b82525050565b600060c0820190506110ae6000830189610f8a565b6110bb6020830188610f8a565b6110c86040830187610f8a565b6110d56060830186610f8a565b6110e26080830185610f8a565b6110ef60a083018461108a565b979650505050505050565b600082825260208201905092915050565b7f4e6f206c6f616e20617661696c61626c6520746f207061790000000000000000600082015250565b60006111416018836110fa565b915061114c8261110b565b602082019050919050565b6000602082019050818103600083015261117081611134565b9050919050565b7f496e73756666696369656e742020616d6f756e74000000000000000000000000600082015250565b60006111ad6014836110fa565b91506111b882611177565b602082019050919050565b600060208201905081810360008301526111dc816111a0565b9050919050565b7f6c6f616e206e6f74206469736275727365640000000000000000000000000000600082015250565b60006112196012836110fa565b9150611224826111e3565b602082019050919050565b600060208201905081810360008301526112488161120c565b9050919050565b7f4e487b7100000000000000000000000000000000000000000000000000000000600052601160045260246000fd5b600061128982610f80565b915061129483610f80565b92508282039050818111156112ac576112ab61124f565b5b92915050565b7f4f6e6c7920636f6e7472616374206f776e65722063616e20706572666f726d2060008201527f7468697320616374696f6e000000000000000000000000000000000000000000602082015250565b600061130e602b836110fa565b9150611319826112b2565b604082019050919050565b6000602082019050818103600083015261133d81611301565b9050919050565b7f4c6f616e20616d6f756e74206d7573742062652067726561746572207468616e60008201527f207a65726f000000000000000000000000000000000000000000000000000000602082015250565b60006113a06025836110fa565b91506113ab82611344565b604082019050919050565b600060208201905081810360008301526113cf81611393565b9050919050565b7f436f6c6c61746572616c20616d6f756e74206d7573742062652067726561746560008201527f72207468616e207a65726f000000000000000000000000000000000000000000602082015250565b6000611432602b836110fa565b915061143d826113d6565b604082019050919050565b6000602082019050818103600083015261146181611425565b9050919050565b7f6c6f616e20616c72656164792065786973740000000000000000000000000000600082015250565b600061149e6012836110fa565b91506114a982611468565b602082019050919050565b600060208201905081810360008301526114cd81611491565b9050919050565b60006114df82610f80565b91506114ea83610f80565b92508282019050808211156115025761150161124f565b5b92915050565b600061151382610f80565b915061151e83610f80565b925082820261152c81610f80565b915082820484148315176115435761154261124f565b5b5092915050565b7f4e487b7100000000000000000000000000000000000000000000000000000000600052601260045260246000fd5b600061158482610f80565b915061158f83610f80565b92508261159f5761159e61154a565b5b828204905092915050565b60006040820190506115bf6000830185610f8a565b6115cc6020830184610f8a565b9392505050565b7f796f7520646f206e6f74206861766520636f6c6c61746572616c000000000000600082015250565b6000611609601a836110fa565b9150611614826115d3565b602082019050919050565b60006020820190508181036000830152611638816115fc565b9050919050565b7f77616c6c6574206d757374206265207a65726f00000000000000000000000000600082015250565b60006116756013836110fa565b91506116808261163f565b602082019050919050565b600060208201905081810360008301526116a481611668565b9050919050565b7f596f757220636f6c6c61746572616c20697320746f6f206c6f77000000000000600082015250565b60006116e1601a836110fa565b91506116ec826116ab565b602082019050919050565b60006020820190508181036000830152611710816116d4565b9050919050565b600081905092915050565b50565b6000611732600083611717565b915061173d82611722565b600082019050919050565b600061175382611725565b9150819050919050565b7f4661696c656420746f2073656e64204574686572000000000000000000000000600082015250565b60006117936014836110fa565b915061179e8261175d565b602082019050919050565b600060208201905081810360008301526117c281611786565b905091905056fea26469706673582212208a563edd01c374b76739e34cac1ed1fb174a47fa5a2362d505db722401436b8f64736f6c63430008110033a26469706673582212200fc423c2c56c18e66d4e36f2498421ae954d38867ebced8a3d77e9bb8c3ed7d364736f6c63430008110033",
  "linkReferences": {},
  "deployedLinkReferences": {}
}