{
  "_format": "hh-sol-artifact-1",
  "contractName": "InsuranceFactory",
  "sourceName": "contracts/InsuranceFactory.sol",
  "abi": [
    {
      "anonymous": false,
      "inputs": [
        {
          "indexed": true,
          "internalType": "address",
          "name": "user",
          "type": "address"
        },
        {
          "indexed": false,
          "internalType": "address",
          "name": "insuranceContract",
          "type": "address"
        }
      ],
      "name": "CollateralProtectionInsuranceCreated",
      "type": "event"
    },
    {
      "anonymous": false,
      "inputs": [
        {
          "indexed": true,
          "internalType": "address",
          "name": "user",
          "type": "address"
        },
        {
          "indexed": false,
          "internalType": "address",
          "name": "insuranceContract",
          "type": "address"
        }
      ],
      "name": "CryptoWalletInsuranceCreated",
      "type": "event"
    },
    {
      "inputs": [],
      "name": "createCollateralProtectionInsurance",
      "outputs": [],
      "stateMutability": "nonpayable",
      "type": "function"
    },
    {
      "inputs": [
        {
          "internalType": "uint256",
          "name": "_insuredAmount",
          "type": "uint256"
        }
      ],
      "name": "createCryptoWalletInsurance",
      "outputs": [],
      "stateMutability": "nonpayable",
      "type": "function"
    },
    {
      "inputs": [],
      "name": "getContract",
      "outputs": [
        {
          "internalType": "address",
          "name": "",
          "type": "address"
        }
      ],
      "stateMutability": "view",
      "type": "function"
    },
    {
      "inputs": [
        {
          "internalType": "address",
          "name": "",
          "type": "address"
        }
      ],
      "name": "userInsuranceContracts",
      "outputs": [
        {
          "internalType": "address",
          "name": "",
          "type": "address"
        }
      ],
      "stateMutability": "view",
      "type": "function"
    }
  ],
  "bytecode": "0x608060405234801561001057600080fd5b50613056806100206000396000f3fe608060405234801561001057600080fd5b506004361061004c5760003560e01c8063958f85bd14610051578063e5c3913f1461006f578063f1e3f1e71461008b578063f2b8b02714610095575b600080fd5b6100596100c5565b6040516100669190610555565b60405180910390f35b610089600480360381019061008491906105ab565b61012b565b005b6100936102ff565b005b6100af60048036038101906100aa9190610604565b6104c7565b6040516100bc9190610555565b60405180910390f35b60008060003373ffffffffffffffffffffffffffffffffffffffff1673ffffffffffffffffffffffffffffffffffffffff16815260200190815260200160002060009054906101000a900473ffffffffffffffffffffffffffffffffffffffff16905090565b600073ffffffffffffffffffffffffffffffffffffffff166000803373ffffffffffffffffffffffffffffffffffffffff1673ffffffffffffffffffffffffffffffffffffffff16815260200190815260200160002060009054906101000a900473ffffffffffffffffffffffffffffffffffffffff1673ffffffffffffffffffffffffffffffffffffffff16146101f8576040517f08c379a00000000000000000000000000000000000000000000000000000000081526004016101ef906106b4565b60405180910390fd5b600081604051610207906104fa565b61021191906106e3565b604051809103906000f08015801561022d573d6000803e3d6000fd5b509050806000803373ffffffffffffffffffffffffffffffffffffffff1673ffffffffffffffffffffffffffffffffffffffff16815260200190815260200160002060006101000a81548173ffffffffffffffffffffffffffffffffffffffff021916908373ffffffffffffffffffffffffffffffffffffffff1602179055503373ffffffffffffffffffffffffffffffffffffffff167f9af448a93d0fc7bdff1a2e96e050ca70eb257d63c460acffd78f8fe9c1e18b9d826040516102f39190610555565b60405180910390a25050565b600073ffffffffffffffffffffffffffffffffffffffff166000803373ffffffffffffffffffffffffffffffffffffffff1673ffffffffffffffffffffffffffffffffffffffff16815260200190815260200160002060009054906101000a900473ffffffffffffffffffffffffffffffffffffffff1673ffffffffffffffffffffffffffffffffffffffff16146103cc576040517f08c379a00000000000000000000000000000000000000000000000000000000081526004016103c3906106b4565b60405180910390fd5b60006040516103da90610507565b604051809103906000f0801580156103f6573d6000803e3d6000fd5b509050806000803373ffffffffffffffffffffffffffffffffffffffff1673ffffffffffffffffffffffffffffffffffffffff16815260200190815260200160002060006101000a81548173ffffffffffffffffffffffffffffffffffffffff021916908373ffffffffffffffffffffffffffffffffffffffff1602179055503373ffffffffffffffffffffffffffffffffffffffff167fa53013289050e8d17c6a5520dc96f6436225ad2895fd50eb42b1c3cc6854cb37826040516104bc9190610555565b60405180910390a250565b60006020528060005260406000206000915054906101000a900473ffffffffffffffffffffffffffffffffffffffff1681565b6110bf806106ff83390190565b611863806117be83390190565b600073ffffffffffffffffffffffffffffffffffffffff82169050919050565b600061053f82610514565b9050919050565b61054f81610534565b82525050565b600060208201905061056a6000830184610546565b92915050565b600080fd5b6000819050919050565b61058881610575565b811461059357600080fd5b50565b6000813590506105a58161057f565b92915050565b6000602082840312156105c1576105c0610570565b5b60006105cf84828501610596565b91505092915050565b6105e181610534565b81146105ec57600080fd5b50565b6000813590506105fe816105d8565b92915050565b60006020828403121561061a57610619610570565b5b6000610628848285016105ef565b91505092915050565b600082825260208201905092915050565b7f5573657220616c72656164792068617320616e20696e737572616e636520636f60008201527f6e74726163740000000000000000000000000000000000000000000000000000602082015250565b600061069e602683610631565b91506106a982610642565b604082019050919050565b600060208201905081810360008301526106cd81610691565b9050919050565b6106dd81610575565b82525050565b60006020820190506106f860008301846106d4565b9291505056fe608060405234801561001057600080fd5b506040516110bf3803806110bf833981810160405281019061003291906100ba565b326000806101000a81548173ffffffffffffffffffffffffffffffffffffffff021916908373ffffffffffffffffffffffffffffffffffffffff16021790555080600181905550506100e7565b600080fd5b6000819050919050565b61009781610084565b81146100a257600080fd5b50565b6000815190506100b48161008e565b92915050565b6000602082840312156100d0576100cf61007f565b5b60006100de848285016100a5565b91505092915050565b610fc9806100f66000396000f3fe60806040526004361061009c5760003560e01c8063a75ac60811610064578063a75ac60814610169578063cf9cd8f814610173578063db342e10146101b0578063eebb1363146101db578063f071684614610206578063fc0c546a146102315761009c565b8063138d2fb8146100a1578063210e200a146100cc57806368a74d5414610109578063770dd2b0146101135780638da5cb5b1461013e575b600080fd5b3480156100ad57600080fd5b506100b661025c565b6040516100c3919061095a565b60405180910390f35b3480156100d857600080fd5b506100f360048036038101906100ee91906109d8565b6102a3565b604051610100919061095a565b60405180910390f35b6101116102bb565b005b34801561011f57600080fd5b50610128610524565b604051610135919061095a565b60405180910390f35b34801561014a57600080fd5b5061015361052a565b6040516101609190610a14565b60405180910390f35b61017161054e565b005b34801561017f57600080fd5b5061019a600480360381019061019591906109d8565b6108c3565b6040516101a7919061095a565b60405180910390f35b3480156101bc57600080fd5b506101c56108db565b6040516101d2919061095a565b60405180910390f35b3480156101e757600080fd5b506101f06108e1565b6040516101fd9190610a4a565b60405180910390f35b34801561021257600080fd5b5061021b6108f4565b604051610228919061095a565b60405180910390f35b34801561023d57600080fd5b5061024661093b565b604051610253919061095a565b60405180910390f35b6000600560003373ffffffffffffffffffffffffffffffffffffffff1673ffffffffffffffffffffffffffffffffffffffff16815260200190815260200160002054905090565b60056020528060005260406000206000915090505481565b600060149054906101000a900460ff161561030b576040517f08c379a000000000000000000000000000000000000000000000000000000000815260040161030290610ac2565b60405180910390fd5b600154341015610350576040517f08c379a000000000000000000000000000000000000000000000000000000000815260040161034790610b2e565b60405180910390fd5b6003544211610394576040517f08c379a000000000000000000000000000000000000000000000000000000000815260040161038b90610b9a565b60405180910390fd5b34600460008060009054906101000a900473ffffffffffffffffffffffffffffffffffffffff1673ffffffffffffffffffffffffffffffffffffffff1673ffffffffffffffffffffffffffffffffffffffff16815260200190815260200160002060008282546104049190610be9565b92505081905550670de0b6b3a76400003410156104645762278d004261042a9190610be9565b600381905550633b9aca006003546004346104459190610c1d565b61044f9190610c1d565b6104599190610c8e565b6002819055506104b9565b670de0b6b3a764000034106104b857624f1a00426104829190610be9565b6003819055506305f5e10060035460093461049d9190610c1d565b6104a79190610c1d565b6104b19190610c8e565b6002819055505b5b6001600060146101000a81548160ff0219169083151502179055503373ffffffffffffffffffffffffffffffffffffffff167f82abc28d50304db161f118aaeecbe75cdfe9829695d3818fe543ac37d5e81a9d3460405161051a919061095a565b60405180910390a2565b60035481565b60008054906101000a900473ffffffffffffffffffffffffffffffffffffffff1681565b60008054906101000a900473ffffffffffffffffffffffffffffffffffffffff1673ffffffffffffffffffffffffffffffffffffffff163373ffffffffffffffffffffffffffffffffffffffff16146105dc576040517f08c379a00000000000000000000000000000000000000000000000000000000081526004016105d390610d31565b60405180910390fd5b600060149054906101000a900460ff1661062b576040517f08c379a000000000000000000000000000000000000000000000000000000000815260040161062290610d9d565b60405180910390fd5b600354421161066f576040517f08c379a000000000000000000000000000000000000000000000000000000000815260040161066690610e2f565b60405180910390fd5b6000600460008060009054906101000a900473ffffffffffffffffffffffffffffffffffffffff1673ffffffffffffffffffffffffffffffffffffffff1673ffffffffffffffffffffffffffffffffffffffff1681526020019081526020016000205403610712576040517f08c379a000000000000000000000000000000000000000000000000000000000815260040161070990610ec1565b60405180910390fd5b60008060146101000a81548160ff021916908315150217905550600254600560008060009054906101000a900473ffffffffffffffffffffffffffffffffffffffff1673ffffffffffffffffffffffffffffffffffffffff1673ffffffffffffffffffffffffffffffffffffffff168152602001908152602001600020600082825461079e9190610be9565b9250508190555060008060009054906101000a900473ffffffffffffffffffffffffffffffffffffffff1673ffffffffffffffffffffffffffffffffffffffff16476040516107ec90610f12565b60006040518083038185875af1925050503d8060008114610829576040519150601f19603f3d011682016040523d82523d6000602084013e61082e565b606091505b5050905080610872576040517f08c379a000000000000000000000000000000000000000000000000000000000815260040161086990610f73565b60405180910390fd5b3373ffffffffffffffffffffffffffffffffffffffff167fd1ecb6c48be11bc10ebf5b0c43978edf1b7fcbc3f5adb6a5ea66952d6a73f72a476040516108b8919061095a565b60405180910390a250565b60046020528060005260406000206000915090505481565b60015481565b600060149054906101000a900460ff1681565b6000600460003373ffffffffffffffffffffffffffffffffffffffff1673ffffffffffffffffffffffffffffffffffffffff16815260200190815260200160002054905090565b60025481565b6000819050919050565b61095481610941565b82525050565b600060208201905061096f600083018461094b565b92915050565b600080fd5b600073ffffffffffffffffffffffffffffffffffffffff82169050919050565b60006109a58261097a565b9050919050565b6109b58161099a565b81146109c057600080fd5b50565b6000813590506109d2816109ac565b92915050565b6000602082840312156109ee576109ed610975565b5b60006109fc848285016109c3565b91505092915050565b610a0e8161099a565b82525050565b6000602082019050610a296000830184610a05565b92915050565b60008115159050919050565b610a4481610a2f565b82525050565b6000602082019050610a5f6000830184610a3b565b92915050565b600082825260208201905092915050565b7f5573657220616c726561647920696e7375726564000000000000000000000000600082015250565b6000610aac601483610a65565b9150610ab782610a76565b602082019050919050565b60006020820190508181036000830152610adb81610a9f565b9050919050565b7f496e76616c696420616d6f756e74000000000000000000000000000000000000600082015250565b6000610b18600e83610a65565b9150610b2382610ae2565b602082019050919050565b60006020820190508181036000830152610b4781610b0b565b9050919050565b7f596f752063616e6e6f7420706179206e6f770000000000000000000000000000600082015250565b6000610b84601283610a65565b9150610b8f82610b4e565b602082019050919050565b60006020820190508181036000830152610bb381610b77565b9050919050565b7f4e487b7100000000000000000000000000000000000000000000000000000000600052601160045260246000fd5b6000610bf482610941565b9150610bff83610941565b9250828201905080821115610c1757610c16610bba565b5b92915050565b6000610c2882610941565b9150610c3383610941565b9250828202610c4181610941565b91508282048414831517610c5857610c57610bba565b5b5092915050565b7f4e487b7100000000000000000000000000000000000000000000000000000000600052601260045260246000fd5b6000610c9982610941565b9150610ca483610941565b925082610cb457610cb3610c5f565b5b828204905092915050565b7f4f6e6c7920636f6e7472616374206f776e65722063616e20706572666f726d2060008201527f7468697320616374696f6e000000000000000000000000000000000000000000602082015250565b6000610d1b602b83610a65565b9150610d2682610cbf565b604082019050919050565b60006020820190508181036000830152610d4a81610d0e565b9050919050565b7f596f7520617265206e6f7420696e737572656400000000000000000000000000600082015250565b6000610d87601383610a65565b9150610d9282610d51565b602082019050919050565b60006020820190508181036000830152610db681610d7a565b9050919050565b7f596f757220696e737572616e636520686173206e6f742065787069726564207960008201527f6574000000000000000000000000000000000000000000000000000000000000602082015250565b6000610e19602283610a65565b9150610e2482610dbd565b604082019050919050565b60006020820190508181036000830152610e4881610e0c565b9050919050565b7f596f752068617665206e6f74207061696420666f7220796f757220696e73757260008201527f616e636500000000000000000000000000000000000000000000000000000000602082015250565b6000610eab602483610a65565b9150610eb682610e4f565b604082019050919050565b60006020820190508181036000830152610eda81610e9e565b9050919050565b600081905092915050565b50565b6000610efc600083610ee1565b9150610f0782610eec565b600082019050919050565b6000610f1d82610eef565b9150819050919050565b7f4661696c656420746f2073656e64204574686572000000000000000000000000600082015250565b6000610f5d601483610a65565b9150610f6882610f27565b602082019050919050565b60006020820190508181036000830152610f8c81610f50565b905091905056fea264697066735822122060d3bae04b61577baa82af97972c43a9243cffaccf07ea0da48402775419a8d264736f6c63430008110033608060405234801561001057600080fd5b50326000806101000a81548173ffffffffffffffffffffffffffffffffffffffff021916908373ffffffffffffffffffffffffffffffffffffffff160217905550611803806100606000396000f3fe6080604052600436106100745760003560e01c806398cd90b51161004e57806398cd90b5146100e0578063b0857bb414610109578063b5e2ebc614610113578063e6a641e9146101555761007b565b8063472eb03d146100805780638da5cb5b1461008a5780638e8cfbde146100b55761007b565b3661007b57005b600080fd5b610088610192565b005b34801561009657600080fd5b5061009f610505565b6040516100ac9190610f69565b60405180910390f35b3480156100c157600080fd5b506100ca610529565b6040516100d79190610f9d565b60405180910390f35b3480156100ec57600080fd5b5061010760048036038101906101029190610fe9565b61052f565b005b6101116109b4565b005b34801561011f57600080fd5b5061013a60048036038101906101359190611055565b610ec7565b60405161014c9695949392919061109d565b60405180910390f35b34801561016157600080fd5b5061017c60048036038101906101779190611055565b610f10565b6040516101899190610f9d565b60405180910390f35b6000600360008060009054906101000a900473ffffffffffffffffffffffffffffffffffffffff1673ffffffffffffffffffffffffffffffffffffffff1673ffffffffffffffffffffffffffffffffffffffff1681526020019081526020016000206003015411610238576040517f08c379a000000000000000000000000000000000000000000000000000000000815260040161022f9061115b565b60405180910390fd5b600360008060009054906101000a900473ffffffffffffffffffffffffffffffffffffffff1673ffffffffffffffffffffffffffffffffffffffff1673ffffffffffffffffffffffffffffffffffffffff168152602001908152602001600020600301543410156102de576040517f08c379a00000000000000000000000000000000000000000000000000000000081526004016102d5906111c7565b60405180910390fd5b600360008060009054906101000a900473ffffffffffffffffffffffffffffffffffffffff1673ffffffffffffffffffffffffffffffffffffffff1673ffffffffffffffffffffffffffffffffffffffff16815260200190815260200160002060050160009054906101000a900460ff161561038f576040517f08c379a000000000000000000000000000000000000000000000000000000000815260040161038690611233565b60405180910390fd5b3073ffffffffffffffffffffffffffffffffffffffff166108fc349081150290604051600060405180830381858888f193505050501580156103d5573d6000803e3d6000fd5b5034600360008060009054906101000a900473ffffffffffffffffffffffffffffffffffffffff1673ffffffffffffffffffffffffffffffffffffffff1673ffffffffffffffffffffffffffffffffffffffff16815260200190815260200160002060030160008282546104499190611282565b925050819055506000600260003373ffffffffffffffffffffffffffffffffffffffff1673ffffffffffffffffffffffffffffffffffffffff1681526020019081526020016000208190555060008054906101000a900473ffffffffffffffffffffffffffffffffffffffff1673ffffffffffffffffffffffffffffffffffffffff167f3db642b80902afb8ef23a2aeab4800b4b3717feb180705cf0a1c273ccc591c97346040516104fb9190610f9d565b60405180910390a2565b60008054906101000a900473ffffffffffffffffffffffffffffffffffffffff1681565b60015481565b60008054906101000a900473ffffffffffffffffffffffffffffffffffffffff1673ffffffffffffffffffffffffffffffffffffffff163373ffffffffffffffffffffffffffffffffffffffff16146105bd576040517f08c379a00000000000000000000000000000000000000000000000000000000081526004016105b490611328565b60405180910390fd5b60008211610600576040517f08c379a00000000000000000000000000000000000000000000000000000000081526004016105f7906113ba565b60405180910390fd5b60008111610643576040517f08c379a000000000000000000000000000000000000000000000000000000000815260040161063a9061144c565b60405180910390fd5b6000600360003373ffffffffffffffffffffffffffffffffffffffff1673ffffffffffffffffffffffffffffffffffffffff16815260200190815260200160002060000154146106c8576040517f08c379a00000000000000000000000000000000000000000000000000000000081526004016106bf906114b8565b60405180910390fd5b6706f05b59d3b200008211156107f4576040518060c00160405280838152602001828152602001624f1a00426106fe91906114d8565b81526020016064601485610712919061150c565b61071c919061157d565b8461072791906114d8565b81526020016000815260200160001515815250600360008060009054906101000a900473ffffffffffffffffffffffffffffffffffffffff1673ffffffffffffffffffffffffffffffffffffffff1673ffffffffffffffffffffffffffffffffffffffff168152602001908152602001600020600082015181600001556020820151816001015560408201518160020155606082015181600301556080820151816004015560a08201518160050160006101000a81548160ff02191690831515021790555090505061091c565b6706f05b59d3b20000821161091b576040518060c0016040528083815260200182815260200162278d004261082991906114d8565b81526020016064600a8561083d919061150c565b610847919061157d565b8461085291906114d8565b81526020016000815260200160001515815250600360008060009054906101000a900473ffffffffffffffffffffffffffffffffffffffff1673ffffffffffffffffffffffffffffffffffffffff1673ffffffffffffffffffffffffffffffffffffffff168152602001908152602001600020600082015181600001556020820151816001015560408201518160020155606082015181600301556080820151816004015560a08201518160050160006101000a81548160ff0219169083151502179055509050505b5b80600260003373ffffffffffffffffffffffffffffffffffffffff1673ffffffffffffffffffffffffffffffffffffffff168152602001908152602001600020819055503373ffffffffffffffffffffffffffffffffffffffff167f58d170de3a12438e22d81380f353b2fcac86f0a708a1374deaa5c6322a95992f83836040516109a89291906115ae565b60405180910390a25050565b6000600260008060009054906101000a900473ffffffffffffffffffffffffffffffffffffffff1673ffffffffffffffffffffffffffffffffffffffff1673ffffffffffffffffffffffffffffffffffffffff1681526020019081526020016000205403610a57576040517f08c379a0000000000000000000000000000000000000000000000000000000008152600401610a4e90611623565b60405180910390fd5b6000600360008060009054906101000a900473ffffffffffffffffffffffffffffffffffffffff1673ffffffffffffffffffffffffffffffffffffffff1673ffffffffffffffffffffffffffffffffffffffff1681526020019081526020016000206004015414610afd576040517f08c379a0000000000000000000000000000000000000000000000000000000008152600401610af49061168f565b60405180910390fd5b600360008060009054906101000a900473ffffffffffffffffffffffffffffffffffffffff1673ffffffffffffffffffffffffffffffffffffffff1673ffffffffffffffffffffffffffffffffffffffff16815260200190815260200160002060000154600360008060009054906101000a900473ffffffffffffffffffffffffffffffffffffffff1673ffffffffffffffffffffffffffffffffffffffff1673ffffffffffffffffffffffffffffffffffffffff168152602001908152602001600020600101541015610c06576040517f08c379a0000000000000000000000000000000000000000000000000000000008152600401610bfd906116fb565b60405180910390fd5b600360008060009054906101000a900473ffffffffffffffffffffffffffffffffffffffff1673ffffffffffffffffffffffffffffffffffffffff1673ffffffffffffffffffffffffffffffffffffffff16815260200190815260200160002060050160009054906101000a900460ff1615610cb7576040517f08c379a0000000000000000000000000000000000000000000000000000000008152600401610cae90611233565b60405180910390fd5b60008060009054906101000a900473ffffffffffffffffffffffffffffffffffffffff1673ffffffffffffffffffffffffffffffffffffffff16600360008060009054906101000a900473ffffffffffffffffffffffffffffffffffffffff1673ffffffffffffffffffffffffffffffffffffffff1673ffffffffffffffffffffffffffffffffffffffff16815260200190815260200160002060000154604051610d619061174c565b60006040518083038185875af1925050503d8060008114610d9e576040519150601f19603f3d011682016040523d82523d6000602084013e610da3565b606091505b5050905080610de7576040517f08c379a0000000000000000000000000000000000000000000000000000000008152600401610dde906117ad565b60405180910390fd5b600360008060009054906101000a900473ffffffffffffffffffffffffffffffffffffffff1673ffffffffffffffffffffffffffffffffffffffff1673ffffffffffffffffffffffffffffffffffffffff16815260200190815260200160002060000154600360008060009054906101000a900473ffffffffffffffffffffffffffffffffffffffff1673ffffffffffffffffffffffffffffffffffffffff1673ffffffffffffffffffffffffffffffffffffffff1681526020019081526020016000206004016000828254610ebd91906114d8565b9250508190555050565b60036020528060005260406000206000915090508060000154908060010154908060020154908060030154908060040154908060050160009054906101000a900460ff16905086565b60026020528060005260406000206000915090505481565b600073ffffffffffffffffffffffffffffffffffffffff82169050919050565b6000610f5382610f28565b9050919050565b610f6381610f48565b82525050565b6000602082019050610f7e6000830184610f5a565b92915050565b6000819050919050565b610f9781610f84565b82525050565b6000602082019050610fb26000830184610f8e565b92915050565b600080fd5b610fc681610f84565b8114610fd157600080fd5b50565b600081359050610fe381610fbd565b92915050565b6000806040838503121561100057610fff610fb8565b5b600061100e85828601610fd4565b925050602061101f85828601610fd4565b9150509250929050565b61103281610f48565b811461103d57600080fd5b50565b60008135905061104f81611029565b92915050565b60006020828403121561106b5761106a610fb8565b5b600061107984828501611040565b91505092915050565b60008115159050919050565b61109781611082565b82525050565b600060c0820190506110b26000830189610f8e565b6110bf6020830188610f8e565b6110cc6040830187610f8e565b6110d96060830186610f8e565b6110e66080830185610f8e565b6110f360a083018461108e565b979650505050505050565b600082825260208201905092915050565b7f4e6f206c6f616e20617661696c61626c6520746f207061790000000000000000600082015250565b60006111456018836110fe565b91506111508261110f565b602082019050919050565b6000602082019050818103600083015261117481611138565b9050919050565b7f496e73756666696369656e742020616d6f756e74000000000000000000000000600082015250565b60006111b16014836110fe565b91506111bc8261117b565b602082019050919050565b600060208201905081810360008301526111e0816111a4565b9050919050565b7f6c6f616e206e6f74206469736275727365640000000000000000000000000000600082015250565b600061121d6012836110fe565b9150611228826111e7565b602082019050919050565b6000602082019050818103600083015261124c81611210565b9050919050565b7f4e487b7100000000000000000000000000000000000000000000000000000000600052601160045260246000fd5b600061128d82610f84565b915061129883610f84565b92508282039050818111156112b0576112af611253565b5b92915050565b7f4f6e6c7920636f6e7472616374206f776e65722063616e20706572666f726d2060008201527f7468697320616374696f6e000000000000000000000000000000000000000000602082015250565b6000611312602b836110fe565b915061131d826112b6565b604082019050919050565b6000602082019050818103600083015261134181611305565b9050919050565b7f4c6f616e20616d6f756e74206d7573742062652067726561746572207468616e60008201527f207a65726f000000000000000000000000000000000000000000000000000000602082015250565b60006113a46025836110fe565b91506113af82611348565b604082019050919050565b600060208201905081810360008301526113d381611397565b9050919050565b7f436f6c6c61746572616c20616d6f756e74206d7573742062652067726561746560008201527f72207468616e207a65726f000000000000000000000000000000000000000000602082015250565b6000611436602b836110fe565b9150611441826113da565b604082019050919050565b6000602082019050818103600083015261146581611429565b9050919050565b7f6c6f616e20616c72656164792065786973740000000000000000000000000000600082015250565b60006114a26012836110fe565b91506114ad8261146c565b602082019050919050565b600060208201905081810360008301526114d181611495565b9050919050565b60006114e382610f84565b91506114ee83610f84565b925082820190508082111561150657611505611253565b5b92915050565b600061151782610f84565b915061152283610f84565b925082820261153081610f84565b9150828204841483151761154757611546611253565b5b5092915050565b7f4e487b7100000000000000000000000000000000000000000000000000000000600052601260045260246000fd5b600061158882610f84565b915061159383610f84565b9250826115a3576115a261154e565b5b828204905092915050565b60006040820190506115c36000830185610f8e565b6115d06020830184610f8e565b9392505050565b7f796f7520646f206e6f74206861766520636f6c6c61746572616c000000000000600082015250565b600061160d601a836110fe565b9150611618826115d7565b602082019050919050565b6000602082019050818103600083015261163c81611600565b9050919050565b7f77616c6c6574206d757374206265207a65726f00000000000000000000000000600082015250565b60006116796013836110fe565b915061168482611643565b602082019050919050565b600060208201905081810360008301526116a88161166c565b9050919050565b7f596f757220636f6c6c61746572616c20697320746f6f206c6f77000000000000600082015250565b60006116e5601a836110fe565b91506116f0826116af565b602082019050919050565b60006020820190508181036000830152611714816116d8565b9050919050565b600081905092915050565b50565b600061173660008361171b565b915061174182611726565b600082019050919050565b600061175782611729565b9150819050919050565b7f4661696c656420746f2073656e64204574686572000000000000000000000000600082015250565b60006117976014836110fe565b91506117a282611761565b602082019050919050565b600060208201905081810360008301526117c68161178a565b905091905056fea264697066735822122091df636e532ffe27133038c1cd5ef24f3856ddc6a786887d55877c772a34c60364736f6c63430008110033a264697066735822122024409a1e2aa8d0c3844e8c1b02a27884fe9a11f82e1332a6148032d825993e7b64736f6c63430008110033",
  "linkReferences": {},
  "deployedLinkReferences": {}
}